:020000040800F2
:1000000058DF0020710200082DA80008598E000852
:10001000D3A700081F18000839D800080000000006
:1000200000000000000000000000000059B20008BD
:10003000491E00080000000071AA000865B200080F
:100040008B0200088B0200088B0200088B0200085C
:10005000ED2300088B0200088B0200088B020008C9
:100060008B0200084B1E0008511E00088B0200087E
:100070009D1C0008A91C0008B51C0008C11C000834
:100080008B0200088B0200088B0200088B0200081C
:10009000811B00088B0200088B020008571E000815
:1000A0008B0200088B0200088B0200088B020008FC
:1000B0008B0200088B0200080DB300088B020008B9
:1000C0008B020008698E00085D8E0008C5B000082C
:1000D000D1B0000895BC00088B020008A1BC000844
:1000E0008B0200088B0200088B0200088B020008BC
:1000F0008B02000841B300088B020008CD1C0008E9
:100100008B0200088B0200088B0200088B0200089B
:100110008B0200088B02000819B3000835B30008F1
:10012000D91C00088B020008E51C0008F11C00081F
:10013000FD1C00088B0200088B0200088B020008DF
:100140008D1B00088B0200088B02000831A80008F4
:10015000091D0008151D0008211D0008C5BC000868
:10016000818E0008758E00088B0200088B02000843
:100170008B0200088B0200088B02000800000000C0
:100180008B0200088B02000800F002F800F060F813
:100190000AA090E8000C82448344AAF10107DA45E2
:1001A00001D100F055F8AFF2090EBAE80F0013F0D4
:1001B000010F18BFFB1A43F001031847600201004A
:1001C000800201000A444FF0000C10F8013B13F0CC
:1001D000070408BF10F8014B1D1108BF10F8015BA0
:1001E000641E05D010F8016B641E01F8016BF9D193
:1001F00013F0080F1EBF10F8014BAD1C0C1B09D1EA
:100200006D1E58BF01F801CBFAD505E014F8016B5B
:1002100001F8016B6D1EF9D59142D6D370470000ED
:100220000023002400250026103A28BF78C1FBD8FF
:10023000520728BF30C148BF0B6070471FB50FF091
:10024000C0FF9DE8030000F0FFF91FBD10B510BD11
:1002500000F0B6FA1146FFF7F1FF0EF02BFD00F0AB
:10026000D4FA03B4FFF7F2FF03BC00F005FB000073
:100270000948804709480047FEE7FEE7FEE7FEE73A
:10028000FEE7FEE7FEE7FEE7FEE7FEE70448054976
:10029000054A064B70470000FDB2000889010008BE
:1002A000583F002058DF0020588F0020588F002032
:1002B00070B5A0FB0140B4F1805170F1000024BF83
:1002C000002070BD204600F0EEF905001CBF21465D
:1002D00000F023FA284670BD70B50446051F00F0F3
:1002E00097F90068002C14BF446870BD002C18BF3B
:1002F000AC423CBF20466468F8D301680A18AA42A1
:1003000018BF456003D12A6805461144016028687A
:100310004119A1421CBF6C6070BD616869602168B1
:100320000844286070BD70B50D460646041F00F0F5
:100330006FF9D0F800C0C5B1E6B105F10B0020F0AF
:100340000703AB423CBF002070BD2068984238BF15
:10035000DCF8042013D3C11A08292FD3E01840F881
:10036000041B2360FFF7B8FF28E03046FFF7B4FF17
:10037000002070BD2846BDE8704000F094B9002A06
:1003800018BFA2423CBF94465268F8D3011991426B
:1003900016D111680844984212D3C11A08293CBFEB
:1003A0002060506808D35168E018416021681268E5
:1003B0001144C91A01602360CCF80400201D70BDEF
:1003C000181F00F070F9050007D021680A1F211DD1
:1003D00000F0C1F8201DFFF77FFF284670BD53EAEB
:1003E000020C00F069802DE9F04B4FF00006002B65
:1003F0001FBFB3FA83F503FA05F424FA05F65E404D
:1004000012BF1643B2FA82F502FA05F4C5F12005CF
:100410001EBF22FA05FC44EA0C04203556EA044CBF
:100420004FEA144418BF641C4FF000084FF0000955
:10043000904271EB030C39D3002919BFB1FA81F74F
:1004400001FA07F6B0FA80F700FA07F6C7F12007BD
:100450001EBF20FA07FC46EA0C062037B6FBF4FC68
:10046000A7EB0507103F07F01F0BCBF120060CFA96
:100470000BFB2CFA06F644BFB3460026202FA4BF80
:100480005E464FF0000B5BEA060C08BF4FF0010B15
:1004900019EB0B09ABFB027C48EB0608C01B06FB03
:1004A00002CC0BFB03CC71EB0C01C1E70B460246FF
:1004B00041464846BDE8F08B13B54FF000004FF0C1
:1004C0000001AFF30080BDE81C407047032A40F2F2
:1004D000308010F0030C00F0158011F8013BBCF1E6
:1004E000020F624498BF11F801CB00F8013B38BFFE
:1004F00011F8013BA2F1040298BF00F801CB38BF0C
:1005000000F8013B11F0030300F02580083AC0F029
:10051000088051F8043B083A51F804CBA0E80810D1
:10052000F5E7121D5CBF51F8043B40F8043BAFF304
:100530000080D20724BF11F8013B11F801CB48BF5E
:1005400011F8012B24BF00F8013B00F801CB48BF94
:1005500000F8012B704710B5203AC0F00B80B1E8CD
:100560001850203AA0E81850B1E81850A0E81850E8
:10057000BFF4F5AF5FEA027C24BFB1E81850A0E8F1
:10058000185044BF18C918C0BDE810405FEA827C0B
:1005900024BF51F8043B40F8043B08BF7047D20722
:1005A00028BF31F8023B48BF11F8012B28BF20F8C3
:1005B000023B48BF00F8012B70474FF0000200B526
:1005C000134694469646203922BFA0E80C50A0E876
:1005D0000C50B1F12001BFF4F7AF090728BFA0E824
:1005E0000C5048BF0CC05DF804EB890028BF40F8F0
:1005F000042B08BF704748BF20F8022B11F0804F32
:1006000018BF00F8012B7047704770477047000013
:1006100000487047003F00207047704770477047A0
:1006200038B504460A4600206946AFF3008000282A
:1006300008BF38BD02460099204600F0A0F801200E
:1006400038BD012000F0B5B8F8B5AFF3008005461D
:1006500000200C46102000BF0646A819A0420DD964
:10066000324669460020AFF30080070008BF00F063
:10067000A0F80098A04218BF0546C419FFF7C8FFAC
:1006800005600746F01D20F007004619284600F0D7
:100690006FF8B44208BFF8BDA21B31463868BDE808
:1006A000F84000F06CB870B50646FFF7B1FF05687A
:1006B00006F10B0020F00704B4429CBF002070BD7F
:1006C0002B466A68BAB11068A04210D304F1080141
:1006D00088423CBF5068586007D351681019416088
:1006E0001168091B016058601460101D70BD13462D
:1006F0005268002AE7D121462846FFF791FF0028DB
:10070000DED170BD10B500F02FF8006810BD10B537
:10071000044600F029F8046010BD4FF000020429DF
:10072000C0F0128010F0030C3FF449AFCCF1040C80
:10073000BCF1020F18BF00F8012BA8BF20F8022B54
:10074000A1EB0C01FFF73BBF5FEAC17C24BF00F8BF
:10075000012B00F8012B48BF00F8012B7047000067
:1007600000487047F83E002000487047F83E0020DF
:1007700000210160C0E90110704710207047034656
:1007800040688C46002818BF88423CBF034640683A
:10079000F8D318681844884207D00CF1030020F001
:1007A0000700001D411A521A0146081D0A60FFF792
:1007B00093BD10B500F038F8BDE8104000F02EB839
:1007C0007546FFF7CDFFAE4605006946534620F05B
:1007D0000700854618B020B5FFF758FDBDE820405A
:1007E0004FF000064FF000074FF000084FF0000BED
:1007F00021F00701AC46ACE8C009ACE8C009ACE8A0
:10080000C009ACE8C0098D46704710B50446AFF387
:1008100000802046BDE81040FFF723BD002801D02E
:1008200000F02AB87047000010B5012805D000215B
:1008300003A000F028F8012010BD09A1F8E700008E
:1008400053494752544D454D3A204F7574206F66B9
:100850002068656170206D656D6F72790000000021
:100860003A2048656170206D656D6F727920636F05
:10087000727275707465640001491820ABBEFEE7A2
:1008800026000200704770B505460C460A2000E0BD
:100890006D1C00F011F835B128780028F8D102E07D
:1008A000641C00F009F814B120780028F8D1BDE8E4
:1008B00070400A20AFF3008008B569468DF800004B
:1008C0000320ABBE08BD0000F0EE401A31EEE00A96
:1008D000B5EEC00AF1EE10FA01DD012008E0B5EE38
:1008E000C00AF1EE10FA02D24FF0FF3000E0002013
:1008F00000EE100AB8EEC02AB0EE600A02EE010A5D
:1009000070EE610A60EE820AF5EEC00AF1EE10FAAE
:1009100001DBB0EE610A704780EE201ABDEEC11A0D
:10092000B8EEC11A01EE600A704710B504462DED0D
:10093000048BB0EE408AF7EE008A18EE100A0CF035
:10094000D9FF20B918EE100A0CF0C2FF38B1DF4908
:10095000012008709FEDDE0ABDEC048B10BD002C59
:1009600024DA60420FF073F841EC190B18EE100A0C
:100970000FF0B6FB41EC100BB0EE491AF0EE691A1D
:100980000DF036FA53EC102B9FEDD20B51EC100BFF
:100990000EF0D6FE0EF0E6FD00EE100ADCE7E007F2
:1009A00001D068EE888A28EE088A6410002CF6D1FF
:1009B000B0EE680AD0E710B510EE100A0FF090FB09
:1009C00041EC100B0DF068F851EC100B0EF0CAFD65
:1009D00000EE100A10BD70B52DED028BB0EE408A0E
:1009E00018EE100A0CF086FFB84C0125DFEDB88A2E
:1009F00020B918EE100A0CF06BFF08B1257016E054
:100A0000B5EEC08AF1EE10FA07D8B5EEC08AF1EE65
:100A100010FAF3D30220207009E018EE100AB0F1AA
:100A20007E5F04D00024B2EE040AAC4909E0B0EEC7
:100A3000680ABDEC028B70BDC8EE000A641CB0EE03
:100A4000608A18EE100A8842F6DCA54918EE100AF2
:100A5000884203DC28EE008A641EF7E7B0EE480AFD
:100A60000EF024FC00EE904AF8EEE00A9FED9D1A8D
:100A700010EE810ADDE770B52DED048BF0EE408AB3
:100A8000B0EE608A18EE900A0CF034FF8F4D01240E
:100A90009FED8F9A20B918EE900A0CF019FF08B15B
:100AA0002C7015E018EE100A0CF024FF0028F7D186
:100AB00018EE100A0CF00CFF0028F1D1F5EEC08AF8
:100AC000F1EE10FA09D1B5EEC08AF1EE10FAE7D0D6
:100AD000B0EE490ABDEC048B70BDB0EE680AFFF7BA
:100AE0007AFF20EE080ABDEC048BBDE8704062E797
:100AF00010B52DED028BF0EE408AB0EE600AFFF7E4
:100B00006AFFB0EE408AB0EE680AFFF764FFC8EEF5
:100B1000000AB0EE600ABDEC028B10BD70B52DED81
:100B2000028BB0EE408A18EE100A0CF0E3FE674D1F
:100B3000012420B918EE100A0CF0CAFE28B12C705E
:100B40009FED630ABDEC028B70BDB5EEC08AF1EE7D
:100B500010FA00D22C7018EE100AB6EE000A6249A4
:100B600068EE000AA1EB600000EE100AB7EE081A6A
:100B700020EE802AF0EE411A42EE401A21EE800A61
:100B800060EE800A00EEC01A21EE000ADAE710B526
:100B90002DED028BB0EE408A18EE100A0CF0AAFE82
:100BA00020B918EE100A0CF093FE38B14749012025
:100BB00008709FED470ABDEC028B10BDB0EE480AED
:100BC000FFF7ACFFB7EE001AC1EE000AB0EE600A04
:100BD000F1E710B52DED028BB0EE408A18EE100A49
:100BE0000CF088FE20B918EE100A0CF071FE28B146
:100BF000364901209FED360A08708CE7B0EE480AAE
:100C0000FFF7D9FEF0EE408AB1EE480AFFF7D3FEB7
:100C100038EEC00AF6EE000A20EE200A7BE710B597
:100C20002DED028BB0EE408A18EE100A0CF062FE39
:100C300020B918EE100A0CF04BFE28B12349012010
:100C40009FED230A087066E7B0EE480AFFF7B3FE8F
:100C5000F0EE408AB1EE480AFFF7ADFE38EE800AAA
:100C6000F6EE000A20EE200A55E710B52DED028BB6
:100C7000B0EE408A18EE100A0CF03CFE20B918EED7
:100C8000100A0CF025FE28B1104901209FED100A32
:100C9000087090E718EE100A0FF022FA41EC100BE2
:100CA0000CF0FAFE51EC100B0EF05CFCF7EE000AB3
:100CB00000EE100AB0EE601AF0EE001A00EE001A14
:100CC00081EE810A30EEC00A75E70000690100205C
:100CD00000000000000000000000F03FCDCCCC3D43
:100CE0000AD7233C8E5D1340DF59375F704770474A
:100CF00010B504464B48416821F4403141604168D9
:100D00006268114341602068416821F4807141604C
:100D100020684168226941EA0221416020684168F7
:100D200021F04071416020684168A2681143416030
:100D30002068816821F40061816020688168E26830
:100D400011438160A06A6FF07061C84220688168B9
:100D500021F070618160206881680CD0A26A114323
:100D600081602068816821F040518160206881683D
:100D7000E26A114301E021F04051816020688168FE
:100D800021F00201816020688168227E41EA4201EF
:100D9000816094F8200000283FD0606A401E072838
:100DA00004D94FF4F56120A00DF076FF206841686A
:100DB00041F4006141602068416821F46041416074
:100DC00020684168264B626A03EB4232114341605E
:100DD0002068C16A21F47001C1622068C16AA28BD7
:100DE000204B03EB02521143C1622068816821F459
:100DF000007181602068816894F8302041EA4221C6
:100E000081602068816821F4806181602068816848
:100E1000626941EA8221816010BD2068416821F445
:100E20000061D4E7002301402E2E2F4472697665BD
:100E300072732F53544D3332463478785F48414CA7
:100E40005F4472697665722F5372632F73746D33CA
:100E500032663478785F68616C5F6164632E63002A
:100E600000E0FFFF0000F0FF70B50D462DED028B96
:100E7000B7EE008A90ED001A90ED010AF0EE008ABC
:100E800061EE011AF0EE480A044640EE001A51EEF7
:100E9000A80AD0ED031A21EE211AD0ED021A00EEB5
:100EA000211A21EE280A0EF00DF885ED020A94EDC4
:100EB000001A94ED030AF0EE480A61EE011A40EEC2
:100EC000001A51EEA80AD4ED011A21EE211AD4ED30
:100ED000021A01EE801A21EE280A0DF0F3FF85EDCB
:100EE000000A94ED010AD4ED030A94ED021A20EEF3
:100EF000200AD4ED000A00EEC10AF8EE000A20EE46
:100F0000200A0CF033FD85ED010ABDEC028B70BDAB
:100F100070B50024DDE90456C46004614461446294
:100F20008462C46204634463DFED150A8463C0ED28
:100F3000150ADFED140AC0ED160ADFED130AC0ED45
:100F4000170ADFED120AC0ED000AC0ED020AC0ED7B
:100F5000010A80ED140AB7EE000A80ED0F0AC0ED19
:100F6000100AC0ED110A9FED0A0AC0ED120A80EDC9
:100F7000130A0567C0E91813C0E91A2670BD0000FE
:100F8000B10B123A3B7EB9BBCEFB7FBA000000002A
:100F9000AA371D412DE9F041836E044600F1240774
:100FA00000F10C061BB13A463146606E9847226F3D
:100FB00004F130051AB12946E06E904707E09FED35
:100FC000330A84ED0C0A84ED0D0A84ED0E0A94EDCB
:100FD000090AD4ED150A2E482B4630EE600A3A462F
:100FE000314684ED090A94ED0A0AD4ED160A30EE72
:100FF000600A84ED0A0A94ED0B0AD4ED170A30EE6C
:10100000600A84ED0B0A94ED130A80ED000A04F1E6
:101010003C00D4F860C094ED140A0546E047214630
:101020002846FFF721FF04F10C02294692EC030A3F
:10103000184800F091FB1748D4ED130A90ED020A0E
:1010400030EE601A9FED140A80ED021AD0ED000A0E
:1010500094ED062A60EE801ADFED100A42EE201AA7
:10106000C4ED061AD0ED011A94ED072A61EE801A3C
:1010700021EE000A42EE201AC4ED071A94ED081A78
:1010800001EE200A84ED080ABDE8F08100000000AE
:101090006C010020582D00209A99193FCCCCCC3EF1
:1010A0002DE9F05F0C4682EA02114FF0050AB1FB10
:1010B000FAF5074689460AFB1591DDE90AB007EB08
:1010C00081015FEA03080D69228060612BD061888D
:1010D0004FF0807000EB31204FEA306060800006F6
:1010E000410D2069FFF71FF906000CD1A07810F020
:1010F000FF0F08D0387B882120F0FE0008303873BD
:1011000012A00DF0C9FD2661A1786FF0070202EB75
:10111000C1016FF0030346F80180A278216903EB57
:10112000C20241F802B00DB908E00546A8690028DE
:10113000FBD1A54200D0AC61BDE8F09FB9FBFAF24B
:101140000AFB129007EB80000461F5E72E2E5C533A
:10115000454D4C5C4D6964646C6577617265735C88
:1011600053797374656D5C6D6573736167652E6328
:10117000000000002DE9F04104461430074609F054
:10118000ADFD8021201D00F022FA5521201D00F028
:101190001EFA5521201D00F01AFA514D28703846CC
:1011A00009F0A5FD012002F01FFF384609F096FD69
:1011B0008021201D00F00BFA5521201D00F007FAB8
:1011C0005521201D00F003FA2870384609F08FFDE4
:1011D000012002F009FF384609F080FDB6227E2189
:1011E000201D00F002FA384609F081FD502002F07F
:1011F000FBFE384609F072FD8021201D00F0E7F962
:101200005521201D00F0E3F95521201D00F0DFF9E4
:101210002870384609F06BFD012002F0E5FE3846E3
:1012200009F05CFD8021201D00F0D1F95521201D21
:1012300000F0CDF95521201D00F0C9F9287038467D
:1012400009F055FD012002F0CFFE28781E2802D0BB
:10125000FF20BDE8F0810020214E68701836384626
:1012600009F03CFD687800EB400081194A78315C58
:10127000201D00F0BAF9384609F039FD012002F0CE
:10128000B3FE384609F02AFD687800EB4000305C78
:1012900040F08001201D00F09AF95521201D00F03A
:1012A00096F95521201D00F092F92870384609F072
:1012B0001EFD012002F098FE68782B7800EB4001BB
:1012C00031444A789A4203D08978AA781143A970A8
:1012D000401CC0B268700628C1D30020B9E70000E6
:1012E000240100202DE9F04105461C30074609F095
:1012F000F5FC464A0021281D00F05CF9384609F04B
:10130000F6FC012002F070FE384609F0E7FC3F4A87
:101310000021281D00F04EF9384609F0E8FC0120B4
:1013200002F062FE384609F0D9FCB6221421281DCD
:1013300000F05BF9384609F0DAFC502002F054FE68
:10134000384609F0CBFC314A0021281D00F032F963
:10135000384609F0CCFC012002F046FE384609F080
:10136000BDFC2A4A0021281D00F024F9384609F066
:10137000BEFC012002F038FE244C20780F2802D059
:10138000FF20BDE8F0810020204E60702A363846EC
:1013900009F0A4FC607800EB400081194A78315CC8
:1013A000281D00F022F9384609F0A1FC012002F0C6
:1013B0001BFE384609F092FC6078144A00EB4000AE
:1013C000315C281D00F0F6F8384609F090FC012049
:1013D00002F00AFE6078227800EB4001314449783F
:1013E00091420BD0401EC0B20849607000EB400033
:1013F00018310844A17880780843A0706078401CB8
:10140000C0B260700628C2D30020BAE724010020D1
:1014100070B50546FFF7AEFE04462846FFF762FFAB
:10142000204370BD2DE9F0470546143016460F469F
:10143000814609F053FC9221281D00F0C8F80623CC
:10144000514A1221281D00F0A1F8484609F04FFC2E
:101450004D4CA4F110086078D8ED020A000201B2E8
:101460002078014300EE101A05F11C00B8EEC00A06
:1014700020EE200A87ED000AE178A278090209B27D
:10148000114300EE101AD8ED020AB8EEC00A20EEA1
:10149000200A87ED010A61792279090209B2114314
:1014A00000EE101AA8F80410B8EEC00A20EE200AC8
:1014B00087ED020A074609F011FC082322460021A5
:1014C000281D00F063F8384609F011FC20780F2839
:1014D0002CD1E078D8ED030A000201B2A0780143D4
:1014E00000EE101AB8EEC00A20EE200A86ED000ABF
:1014F00061792279090209B2114300EE101AD8ED80
:10150000030AB8EEC00A20EE200A86ED010AE1794E
:10151000A279090209B2114300EE101AA8F80410CA
:10152000B8EEC00A20EE200A86ED020A484609F00D
:10153000D5FBA221281D00F04AF80223124A2221DD
:10154000281D00F023F8484609F0D1FB2078617887
:10155000C00040EA51114046A8F80410B1F5806F70
:1015600002DBA1F500618180B8F90400B4EE001A35
:1015700000EE100AF8EEC00AB3EE070A00EE810A88
:1015800085ED000ABDE8F0873401002070B51C46E7
:101590001546064641F0800100F019F807E0552194
:1015A000304600F014F8641E05F8010BE4B2002C7C
:1015B000F5D170BD70B51446054641F0800100F0CC
:1015C00006F85521284600F002F8207070BD03B5DA
:1015D00083B04FF47A710091012301AA04A909F0A4
:1015E0007BFC9DF8040005B000BD70B515460446AF
:1015F000FFF7EDFF29462046BDE87040FFF7E7BF43
:1016000010B504002DED048BF0EE608AB0EE409A28
:1016100003D1682147A00DF03FFB39EE681A84ED35
:10162000061A616BA9B3F0EE680AB0EE490A2046CB
:10163000884700BF94ED090AD4ED000AD4ED061ADC
:1016400094ED081A00EEA10A70EE010A94ED050A65
:10165000B4EEE00AF1EE10FA08D294ED040AB4EE0A
:10166000E00AF1EE10FA01D3B0EE600A84ED0E0A42
:1016700094F82800012830D0022807D170EE600AC3
:10168000D4ED0B1A00EEA11A84ED081ABDEC048B00
:1016900010BDFFE794ED010AB7EE002A21EE008AA3
:1016A00094ED080A30EE080A84ED080A94ED070A62
:1016B000D4ED020AD4ED091A31EE400A60EE200A98
:1016C00094ED0C0A60EE800A32EE400A41EE800A88
:1016D000C4ED090A84ED071AACE7B4EE600AF1EE36
:1016E00010FAD3D0F5EEC01A4FF0FF30F1EE10FA39
:1016F00001DD012107E0F5EEC01AF1EE10FA01D28A
:10170000014600E00021F5EEC00AF1EE10FA01DD1D
:10171000012005E0F5EEC00AF1EE10FA00D300203A
:1017200011FB00F00028B1DD71EE480AC4ED080A93
:10173000ACE700002E2E5C53454D4C5C4D69646453
:101740006C6577617265735C436F6E74726F6C5C0D
:101750005049442E63000000F6EE001AD1ED022A33
:10176000B0EE613A91ED032A02EEE23A91ED004AC1
:10177000B0EE615A02EE423A63EE003A91ED013A60
:1017800063EE224A44EE424A23EE022AB0EE003AC9
:1017900004EE222A44EEA03A42EE013A23EE832AD6
:1017A00080ED002A91ED012AD1ED023A91ED004A37
:1017B000D1ED032A62EE234A02EE425A44EE224A57
:1017C00002EEE25A63EEA22A64EE804A44EE422A16
:1017D00045EE204A42EE814A24EE832A80ED012A1A
:1017E000D1ED012AD1ED033A91ED022A91ED004AA3
:1017F00062EEA34A62EE233A42EEE21A44EE424A15
:1018000044EE223A42EE421A24EE800A03EEA00A87
:1018100001EE810A20EE030A80ED020A7047FEE71E
:1018200070B5040003D1562160A00DF035FAD4E95B
:1018300003108847617801F001018142A07805D149
:101840000B2801D30B2003E0401C01E000B1401E37
:10185000A070C0B206282078C0F3021140D319B19D
:10186000012919D0022969D102F0FAFD606060787F
:10187000012101EB500161F347006070207820F0F6
:101880000F00C01C2070216A09B1204688472078CB
:1018900020F07000103086E020F00F00401C207017
:1018A000A16909B12046884702F0DAFD6168401A53
:1018B000B0F5FA7F42D9207801060BD420F00F0052
:1018C000C01D2070216B09B120468847207840F068
:1018D0008000207000F0F00008302070616B0AE09A
:1018E00029B1002501290CD002295AD127E020F086
:1018F0008F0020706169002920D02046BDE870402B
:10190000084702F0ADFDA060207820F00F00801C99
:101910002070E16909B1204688472078010607D583
:1019200020F00F0009302070A16B09B120468847D4
:10193000207820F0700020302070656070BD02F0CB
:101940008FFD0146A068091A9629F7D90028F5D01D
:10195000207801061FD46178490809D001290CD0EC
:10196000022920F00F0011D0801D2070E16A10E0E4
:10197000A3210EA00DF090F90DE020F00F00001D46
:101980002070616A05E02046884704E0401D207011
:10199000A16A0029F7D1A560607820F0FE00607090
:1019A000207820F07000207070BD00002E2E5C5357
:1019B000454D4C5C447269766572735C68616C5C21
:1019C000627574746F6E2E6300000000054810B5D8
:1019D0000468002C04D02046FFF722FFE46BF8E7F0
:1019E00010BD00001C0100201CB504460091ADF89C
:1019F00004308DF80620694600F030FA08B1012065
:101A00001CBD94F86801401C84F8680100201CBDCE
:101A100001460848006807E0D0F85C218A4205D0FA
:101A2000D0F86C21002A03D00028F5D100F004B8CA
:101A300070470000200100207CB5044602F010FD34
:101A4000D4F8581188422BD96946204600F0ACF9E9
:101A500004F5AE7510B19FED130A1EE094F868010D
:101A6000401E84F8680104F5AC7402F0F9FCBDF87E
:101A70000410084420602846009909F0BDF99DF83B
:101A80000600F6EE000A00EE100A9FED071AB8EE07
:101A9000400A60EE200A80EE810A284609F06AF9C1
:101AA0007CBD0000000000000000C842F8B50446FC
:101AB0000020C4F86C01C4F8580184F868011E467F
:101AC00017460D46009004F11003272208212046F6
:101AD00007F098FE0E49086810B90C6006E0084649
:101AE000D0F86C110029FAD1C0F86C41094A0E21D6
:101AF000284606F0D9FD04F5AE7033463A4629462D
:101B0000044609F0FDF82046BDE8F84009F0A2B906
:101B100020010020111A000870B5044690F86801F1
:101B20000D46C0F12800062801DC012070BD0A46E0
:101B300041F27076642331462046FFF755FF642357
:101B4000002231462046FFF74FFF64232A463146E4
:101B50002046FFF749FF6423002231462046FFF765
:101B600043FF64232A4631462046FFF73DFF6423A6
:101B7000002231462046FFF737FF002070BD0000ED
:101B8000014801F091BA000044040020014801F02E
:101B90008BBA0000A8040020002070470020704786
:101BA00010B50022044905480AF072FA04490348B6
:101BB0000AF061FA002010BD182500201011002045
:101BC000181D002010B5014603480AF054FA0248D7
:101BD0000AF02AFA002010BD10110020F8B51E46A8
:101BE0000C46050003D1892114A00DF055F81EB94B
:101BF0008A2112A00DF050F8306818B98B210FA07F
:101C00000DF04AF84CB1012C07D0022C05D0032C62
:101C100003D08C2109A00DF03FF885F83840134B14
:101C20006422012105F14800009509F0A7F92A4630
:101C30000F49104608F0CEFD2846F8BD2E2E5C5305
:101C4000454D4C5C4D6964646C6577617265735C8D
:101C5000436F6D6D756E69636174696F6E735C441B
:101C60006A695F4D6F746F722E630000791C000803
:101C7000751C0008704700009FED070A002180EDE9
:101C8000030A80ED040A80ED050A017780ED020A5F
:101C900080ED010A7047000000000000014801F0DB
:101CA00063BF0000F00F0020014801F05DBF00009D
:101CB000C8050020014801F057BF00002808002097
:101CC000014801F051BF000088080020014801F0E0
:101CD0004BBF000028060020014801F045BF00006E
:101CE00068070020014801F03FBF000050100020AD
:101CF000014801F039BF0000C8070020014801F089
:101D000033BF0000E4030020014801F02DBF0000B4
:101D1000900F0020014801F027BF0000B010002004
:101D2000014801F021BF0000300F00200168182396
:101D3000CAB2103AB2FBF3F2054B6FF30901032A62
:101D40009B5CC36500D9091D81650846704700008A
:101D5000C602010810B5014600208B698A6A4FF05F
:101D6000C07453B1B3F5005F15D072B1012A0CD025
:101D7000022A0AD0032A09D104E01AB1012A06D0A6
:101D8000022A03D1C96AC90100D5012010BDC96A60
:101D9000A142FAD010BD002AF7D0012AF2D0022ABF
:101DA000F3D0032AF3D010BD70B50D46040003D163
:101DB000B6211AA00CF070FF1DB9B72117A00CF0C6
:101DC0006BFF206818B9B82114A00CF065FF207BC8
:101DD00040F080012173E288A088824207D121F07F
:101DE0003C00083020F080002073012070BD628923
:101DF000216800FB02112846FEF768FBA088401C02
:101E000080B2A0802189884201D30020A080207B5D
:101E100020F080002073002070BD00002E2E5C5347
:101E2000454D4C5C4D6964646C6577617265735CAB
:101E3000446174615374727563747572655C717515
:101E40006575652E630000007047082002F048B9F0
:101E5000102002F045B9202002F042B970B50D46BD
:101E6000040003D187212FA00CF016FF1DB9882193
:101E70002CA00CF011FF206818B9892129A00CF0C2
:101E80000BFF207B810709D000F00300012805D05B
:101E9000022803D08A2123A00CF0FEFE207B40F014
:101EA00080002073E2882189521CB2FBF1F301FB10
:101EB0001323A28893421ED110F0030317D0012BE5
:101EC00008D0022B17D1521CB2FBF1F001FB1020FD
:101ED000A08010E020460DF07BFA60B1207B20F05E
:101EE0003C000C3020F080002073012070BD20F0F9
:101EF0003C00001DF6E7E1886289206801FB0200D2
:101F00002946FEF7E3FAE088401C80B2E080218990
:101F1000884201D10020E080207B20F080002073E7
:101F2000002070BD2E2E5C53454D4C5C4D696464A1
:101F30006C6577617265735C44617461537472752A
:101F400063747572655C71756575652E630000005C
:101F500072B6FEE72DE9F04102F082FA1C4C002532
:101F60000646A56104F10808C4F8145002F078FA96
:101F7000801B642860690AD8401C606101211448F4
:101F800000F004F90021404600F000F9EEE73221AC
:101F900048436427B0FBF7F0C4E9055002F060FA4B
:101FA0004FEA000602F05CFA801B6428606906D8DC
:101FB000401C60610021404600F0E8F8F2E7322161
:101FC0004843B0FBF7F06561E061BDE8F0810000D7
:101FD000382D00200349012008820146014800F005
:101FE000D5B80000382D0020394CA56802F038FA29
:101FF00020B94FF4BA7137A00CF04EFEA06908B9B1
:10200000FFF7A8FF40F27B1655B1286918B9314691
:1020100030A00CF041FE284600F026F9AD69F3E748
:102020004FF4C176256809E0286918B9314629A01E
:102030000CF032FE284600F017F9AD69002DF3D1FF
:10204000642001F0D1FF207C2F46214E2B4DC0078C
:1020500006F1080616D0E069C4F8180002F000FA8C
:102060002968401A322860692BD964214843A16944
:10207000B0FBF1F0C0F16400A074676102F0F0F908
:10208000286020E002F0ECF92968401A32286069E3
:102090000CD964214843A169B0FBF1F0C0F16400A0
:1020A000A074676102F0DCF9286001E0401C606107
:1020B0000121074800F06AF80021304600F066F878
:1020C000E0E7401C60610021304600F05FF8C5E7A2
:1020D000382D00202E2E5C53454D4C5C4D696464B8
:1020E0006C6577617265735C53797374656D5C655B
:1020F00076656E745F6F732E6300000060010020D0
:1021000010B5040003D1AB2115A00CF0C5FD20884B
:1021100040F001002080207801071B4805D5007998
:10212000C0071BD12146184805E0007BC00715D128
:1021300015482146083009F00CFC606900B1804761
:10214000002060612061A061A0606060207820F0C4
:102150000C002070208820F00300208010BD0000BB
:102160002E2E5C53454D4C5C4D6964646C65776103
:102170007265735C53797374656D5C6576656E74B6
:102180005F6F732E63000000382D00202DE9F041B1
:10219000012787800546002604681EE02078400756
:1021A0001AD5A068C0B102F05BF96168884213D308
:1021B00002F056F9A168084460602078C00708D092
:1021C000D4F81880AE802046FFF79AFFAF804446CF
:1021D00002E0216920468847A469002CDED1AE8048
:1021E000BDE8F0812DE9F0471F46DDE90869154695
:1021F0008846040003D1892110A00CF04DFD1EB9C2
:102200008A210EA00CF048FD0020C4E90590C4E925
:102210000108C4E903762078012D20F0040065F35D
:10222000C30020702088214620F0020020800D4845
:1022300000D00830BDE8F04709F081BB2E2E5C537A
:10224000454D4C5C4D6964646C6577617265735C87
:1022500053797374656D5C6576656E745F6F732E0C
:1022600063000000382D002010B5040003D169215F
:1022700008A00CF011FD2078800706D4E06800B1BA
:102280008047208840F002002080207840F0040041
:10229000207010BD2E2E5C53454D4C5C4D6964641E
:1022A0006C6577617265735C53797374656D5C6599
:1022B00076656E745F6F732E6300000070B50E4616
:1022C00004004FF000051AD0012C18D0022C16D0B3
:1022D000032C14D0042C12D0052C10D0062C0ED0B8
:1022E000072C0CD0082C0AD0092C08D00A2C06D0B8
:1022F0000B2C04D040F2D93116A00CF0CDFC66B105
:10230000012E24D0022E1FD0032E04D040F2DA3149
:1023100010A00CF0C1FC4FF440751E48016821F478
:1023200040710160016829430160016821F0F801F2
:1023300001600168022202EBC402114301600168DE
:1023400041F48031016070BD4FF40075E5E74FF452
:102350008075E2E72E2E2F447269766572732F53D3
:10236000544D3332463478785F48414C5F4472694B
:102370007665722F5372632F73746D3332663478BF
:10238000785F68616C5F666C6173685F65782E6307
:1023900000000000103C02401348016889050FD579
:1023A000016821F400710160016841F4006101607D
:1023B000016821F400610160016841F4007101606D
:1023C000016849050FD5016821F480610160016849
:1023D00041F480510160016821F48051016001687D
:1023E00041F4806101607047003C024001F010BE82
:1023F00017490868C206174805D5C26942F010029D
:10240000C26110220A600A68920605D5C26942F0CC
:102410000802C26120220A600A68520605D5C26914
:1024200042F00402C26140220A600A68120605D521
:10243000C26942F00202C26180220A600A68920701
:1024400005D5C26942F02002C261022008607047CF
:102450000C3C0240182D00202DE9F041274C064687
:1024600000202080608003E0228851402180401CB1
:10247000315C0029F8D120884FF0320EB0FBFEF11C
:102480000EFB110020801E4D00202288C2EB02139B
:1024900015F81310A9B1002105EB4307735C0BB3CA
:1024A00017F801C0634502D1491C1E29F6DB521CF6
:1024B00091B2B1FBFEF20EFB1211401C21803228BA
:1024C000E3DDA088401C80B2A080322803D34B21DA
:1024D0000CA00CF0E1FB21880020C1EB011205EB00
:1024E000420206E00120608090B2BDE8F081135402
:1024F000401C335C002BFAD10846F6E77C01002033
:10250000B82F00202E2E5C53454D4C5C4170705C02
:10251000526F626F5C526F626F5F636F6D6D6F6E53
:102520002E63000038B50D46040004D14FF4C67187
:1025300006480CF0B1FB6A46294620460CF068FDBF
:1025400008B1002038BD0098C06838BDF403010808
:10255000F8B514460E46050004D14FF4CE71094873
:102560000CF09AFB6A46314628460CF051FD10B13A
:1025700000202060F8BD0098406820600098008925
:10258000F8BD0000F403010830B5464B01222DEDE3
:10259000048B81B002214448FFF720FB424C434B9F
:1025A000C0340322C4F8C8000221A4F16000FFF780
:1025B00015FB20603EA0FFF74FFF00250146009568
:1025C0002B464048D4F8C8200CF0A8FD3EA0FFF7E9
:1025D00043FF0146009500233A4822680CF09EFD17
:1025E00031483E4D9FED3E9A90F838009FED3E8A6F
:1025F000F0EE492A35F910009FED3A1A00EE100A64
:10260000F0EE480A04F1CC00F8EEC01A9FED370A4C
:10261000B1EE612A08F0CAF9DFED378AF0EE492AF7
:102620009FED332ADFED331AB1EE001AF0EE680A9F
:102630009FED320A04F5847008F0B8F9A4F1600047
:10264000F0EE492A90F83800B0EE681AF0EE480A29
:1026500035F9100000EE100A201DF8EEC01AB0EE99
:10266000480AB1EE612A08F0A1F9F0EE492A9FED7F
:10267000242ADFED241AB0EE081AF0EE680A9FED66
:10268000220A04F1400008F091F9204890ED000A78
:1026900084ED620A90ED020A84ED300A01B0BDECCF
:1026A000048B30BD30360020642D0020B83500206A
:1026B00047696D62616C5F50697463685F4D6F74E8
:1026C0006F7200009435002047696D62616C5F593C
:1026D00061775F4D6F746F7200000000E6020108C1
:1026E0006F12833A3333333F00007A44000048448A
:1026F0000000B4C30000B443000000000000F0423A
:10270000000087C40000874400003443A83600203E
:1027100010B549A02DED028BFFF79EFE01464C48F7
:10272000FFF700FF4B4CC4F8C0004BA0FFF794FE2E
:1027300001464748FFF7F6FEC4F888014CA0FFF7B2
:102740008BFE014604F5C8724148FFF701FF4D4872
:102750000078C0070BD09FED4C8A2068B0EE480A85
:1027600008F04CF8B0EE480AD4F8C8005DE0D4F8A0
:10277000900190ED020A9FED458A30EE081A94ED23
:10278000300A70EE080ADFED428AB0EE680A0BF0FC
:1027900054F8D4F89001D0ED020A2E4870EE880A61
:1027A0004030FEF72DFF84ED2F0A2068D0ED040A9B
:1027B000201DFEF725FF84ED2E0A206808F01EF884
:1027C000D4F8900190ED000A30EE081A94ED620AF8
:1027D00070EE080AB0EE680A0BF02FF8D4F89001FA
:1027E000D0ED000A2B4870EE880AFEF709FF84ED51
:1027F000610AD4ED620ADFED281A9FED281A9FEDD9
:10280000288AD4F8C80000EEA11A01EE208AD0ED83
:10281000040A20483C38FEF7F3FE30EE080A84ED47
:10282000600AD4F8C800B1EE400ABDEC028BBDE8E6
:10283000104007F0E3BF00005365745F47696D62A5
:10284000616C5F5961775F416E676C6500000000E5
:1028500094350020242E00205365745F47696D6213
:10286000616C5F50697463685F416E676C650000FE
:102870005365745F47696D62616C5F496D755F4454
:10288000617461008201002000000000DB0F4940FC
:10289000DB0FC9402C2F00200646C1B317B75139B2
:1028A000FB5C1D3FF8B500260546009608680C46FF
:1028B000122804D940F28B615DA00CF0EDF960683C
:1028C000401E0F2804D940F28C6159A00CF0E4F9A5
:1028D000A06890B1012810D002280ED003280CD097
:1028E00004280AD0052808D0062806D0072804D0D6
:1028F00040F28D614EA00CF0CFF995F83C00012814
:1029000019D0012085F83C00206807212A68092891
:1029100013D9D3680A3800EB400081408B43D36061
:102920002178A0680A3901EB410188402968CA680A
:102930001043C86010E00220F8BD136900EB4000AE
:1029400081408B4313612178A06801EB41018840ED
:1029500029680A691043086160681F21072813D29B
:102960002A68536B401E00EB800081408B43536309
:1029700021792088491E80B201EB810188402968B5
:102980004A6B1043486327E02A680D2812D2136B64
:10299000C01F00EB800081408B43136321792088A6
:1029A000C91F80B201EB8101884029680A6B10437E
:1029B000086311E0D36A0D3800EB800081408B433F
:1029C000D362217920880D3980B201EB81018840E2
:1029D0002968CA6A1043C86224492A6822488A4280
:1029E00006D12268122A03D1426842F48002426072
:1029F0002A688A4218D12168102901D0112913D1DF
:102A0000416841F400014160206810280CD1184849
:102A100018490068B0FBF1F000EB8000400000E0D6
:102A2000401E00900028FBD185F83C600020F8BDD6
:102A30002E2E2F447269766572732F53544D3332A4
:102A4000463478785F48414C5F4472697665722FEE
:102A50005372632F73746D3332663478785F6861B4
:102A60006C5F6164632E630000230140002001401D
:102A70007C00002040420F002DE9F04704004FF099
:102A800000057DD07249206888420AD07149884289
:102A900007D07149884204D04FF4A1716FA00CF0A7
:102AA000FBF8606868B1B0F5803F0AD0B0F5003F30
:102AB00007D0B0F5403F04D040F2431167A00CF0BE
:102AC000EBF8A0684FF080774FF000784FF0407936
:102AD00050B1B84208D0404506D0484504D04FF424
:102AE000A2715EA00CF0D8F8206930B1012804D0A2
:102AF00040F2451159A00CF0CFF8207E30B10128EA
:102B000004D04FF4A37155A00CF0C6F8614EA06A32
:102B100080B3B8422ED040452CD048452AD0B0F1E1
:102B2000806F27D0B0F1A06F24D0B0F1C06F21D05A
:102B3000B0F1E06F1ED0B0F1006F1BD0B0F1106F9C
:102B400018D0B0F1206F15D0B0F1306F12D0B0F1C5
:102B5000406F0FD0B0F1506F0CD0B0F1606F09D062
:102B6000B0F1706F06D0B04204D040F247113BA0E4
:102B70000CF092F8E06848B1B0F5006F06D000E0C4
:102B800043E04FF4A47135A00CF086F8E069401ED4
:102B90000F2804D940F2491130A00CF07DF894F8C8
:102BA000300030B1012804D04FF4A5712BA00CF0F7
:102BB00073F86069012807D030B1022804D040F2D0
:102BC0004B1126A00CF068F894F8200030B10128D1
:102BD00004D04FF4A67121A00CF05EF8A06AB042B8
:102BE0000FD0E06A68B1B0F1805F0AD0B0F1005F49
:102BF00007D0B0F1405F04D04FF4A87117A00CF0DB
:102C00004BF8206C002618B108E00120BDE8F087E1
:102C1000204600F041F8666484F83C60206CC006F1
:102C200010D4206C20F4885040F00200206420462C
:102C3000FEF75EF86664206C20F0020040F00100B0
:102C4000206400E0012584F83C602846DEE70000AF
:102C50000020014000210140002201402E2E2F447F
:102C60007269766572732F53544D333246347878D7
:102C70005F48414C5F4472697665722F5372632FCF
:102C800073746D3332663478785F68616C5F616449
:102C9000632E63000100000F38B505460068124935
:102CA000884220D111480021026842F480720260FB
:102CB0000068104C00F4807000900D48C4E90001D9
:102CC0000015A160C4E90310400060618000C4E900
:102CD000060121622046616201F016F808B1FFF793
:102CE00037F9AC63A56338BD002001404438024089
:102CF00070640240E403002070B590F820600D4637
:102D000004460C48814204D94FF4D0610AA00BF06C
:102D1000C3FF012E07D0022E05D0606A40F4802048
:102D20006062012070BD2068416929434161002033
:102D300070BD00007F8F03002E2E2F4472697665D0
:102D400072732F53544D3332463478785F48414C78
:102D50005F4472697665722F5372632F73746D339B
:102D600032663478785F68616C5F63616E2E6300F1
:102D700070B50C4690F82010012907D0022905D023
:102D8000416A41F480214162012070BD20684FF406
:102D90008035A84204D34FF4547163A00BF07CFF3C
:102DA0006068A84204D340F251315FA00BF074FF79
:102DB000A068A84204D340F252315BA00BF06CFF34
:102DC000E068A84204D340F2533157A00BF064FFEF
:102DD000A06930B1012804D04FF4557152A00BF016
:102DE0005BFFE06930B1012804D040F255314EA0BC
:102DF0000BF052FF206930B1012804D040F2563167
:102E000049A00BF049FF206A30B1012804D040F2FC
:102E1000573145A00BF040FF6069514D1B2804D984
:102E200040F2723140A00BF037FF606A1B2804D9D2
:102E300040F273313CA00BF02FFFD5F8000240F0B8
:102E40000100C5F80002D5F8000220F47C50C5F856
:102E50000002D5F80002616A40EA0120C5F80002CC
:102E6000207D00F01F0101208840D5F81C1281430D
:102E7000C5F81C12E169B1B9D5F80C128143C5F847
:102E80000C12A289616862F31F41626905EBC202FC
:102E9000C2F840122289216862F31F41626905EB82
:102EA000C202C2F84412E169012916D1D5F80C1208
:102EB0000143C5F80C122288616862F31F41626900
:102EC00005EBC202C2F840122289E16862F31F4199
:102ED000626905EBC202C2F84412A1690029D5F863
:102EE00004120FD051EA0001C5F80412216900292B
:102EF000D5F8141208D00143C5F81412216A01292B
:102F000004D008E08143EFE78143F5E7D5F81C12D0
:102F10000143C5F81C12D5F8000220F00100C5F8E5
:102F20000002002070BD00002E2E2F4472697665CD
:102F300072732F53544D3332463478785F48414C86
:102F40005F4472697665722F5372632F73746D33A9
:102F500032663478785F68616C5F63616E2E6300FF
:102F600000640040704700002DE9F04190F8208097
:102F70001D4617460E00044606D0012E04D04FF41D
:102F8000BE613BA00BF088FEB8F1010F06D0B8F18E
:102F9000020F03D0606A40F480205EE02068002EBB
:102FA00056D00069800755D04FF4D870216800EBE7
:102FB0000610095811F00401B960216809584FD072
:102FC000C90879602168085800F00200F8604FF4E1
:102FD000DA70216800EB0610095801F00F01396121
:102FE00021680958C1F30721B96121680858000C0C
:102FF00078614FF4DC70216800EB061009582970E5
:1030000021680958090A697021680958090CA970D2
:1030100021680858000EE8704FF4DE70216800EB5C
:1030200006100958297121680958090A697121682F
:103030000958090CA97121680858000EE871206828
:103040008EB1016941F0200101610020BDE8F081ED
:10305000C068A7E7606A40F4001060620120F5E7ED
:10306000490D3960AEE7C16841F02001C160ECE76D
:103070002E2E2F447269766572732F53544D33325E
:10308000463478785F48414C5F4472697665722FA8
:103090005372632F73746D3332663478785F68616E
:1030A0006C5F63616E2E63002DE9F05F054600687A
:1030B00000244669D0F804908768D0F80CA0D0F8B6
:1030C00010B0D0F81880F10742D0F90712D00121D2
:1030D0008160B80701D5A96A0AE0780702D54FF4E4
:1030E000006407E0380702D54FF4805402E0696BB2
:1030F00028468847F80514D529684FF48070886001
:10310000B80501D5E96A0AE0780502D544F400540F
:1031100007E0380502D544F4804402E0A96B284654
:103120008847F80314D529684FF480308860B803C5
:1031300001D5296B0AE0780302D544F4004407E086
:10314000380302D544F4803402E0E96B284688470E
:1031500030074FF0100706D55FEACA6003D528682C
:1031600044F40074C760700708D55FEA0A7005D59B
:1031700029680820C860696C28468847B00706D5CA
:103180002868C068800702D0296C284688477006E6
:1031900006D55FEACB6003D5286844F480640761F4
:1031A000B00608D55FEA0B7005D5296808200861CC
:1031B000E96C28468847F00606D52868006980072C
:1031C00002D0A96C28468847B00307D55FEAC960DA
:1031D00004D528684760296D28468847F00308D53C
:1031E0005FEA097005D5296808204860696D28469E
:1031F0008847300446D55FEA497040D5F00504D5CC
:103200005FEAC87001D044F00104B00504D55FEA5C
:10321000887001D544F00204700504D55FEA487057
:1032200001D544F00404300529D518F0700F26D0DC
:1032300008F07000402815D006DC102809D020289E
:103240000AD0302816D10AE050280ED0602811D1BB
:103250000EE044F008040DE044F010040AE044F0ED
:10326000200407E044F0400404E044F0800401E05E
:1032700044F480742868816921F0700181612968B3
:1032800004204860002C07D0686A20436862284602
:10329000A96DBDE8F05F0847BDE8F09F70B5040078
:1032A0007ED0B3492068884207D0B249884204D012
:1032B00040F21D11B0A00BF0EFFC207E30B10128D0
:1032C00004D04FF48F71ACA00BF0E6FC607E30B1FF
:1032D000012804D040F21F11A7A00BF0DDFCA07E56
:1032E00030B1012804D04FF49071A3A00BF0D4FCAE
:1032F000E07E30B1012804D040F221119EA00BF0F5
:10330000CBFC207F30B1012804D04FF491719AA0FA
:103310000BF0C2FC607F30B1012804D040F22311D1
:1033200095A00BF0B9FCA06868B1B0F1804F0AD04D
:10333000B0F1004F07D0B0F1404F04D04FF492717C
:103340008DA00BF0A9FCE06868B1B0F1807F0AD0D5
:10335000B0F1007F07D0B0F1407F04D040F22511DA
:1033600085A00BF099FC206998B3B0F5803F30D070
:10337000B0F5003F2DD0B0F5403F2AD0B0F5802FFA
:1033800027D0B0F5A02F24D0B0F5C02F21D0B0F5B4
:10339000E02F1ED0B0F5002F1BD0B0F5102F00E0AD
:1033A00041E016D0B0F5202F13D0B0F5302F10D05B
:1033B000B0F5402F0DD0B0F5502F0AD0B0F5602FEA
:1033C00007D0B0F5702F04D04FF493716AA00BF0C2
:1033D00063FC6069C8B1B0F5801F16D0B0F5001F5E
:1033E00013D0B0F5401F10D0B0F5800F0DD0B0F560
:1033F000A00F0AD0B0F5C00F07D0B0F5E00F04D091
:1034000040F227115CA00BF047FC6068401EB0F54D
:10341000806F04D34FF4947157A00BF03DFC94F8E7
:10342000200010B122E0012070BD61482064614895
:1034300060646148A0646148E0646148A0626148DA
:10344000E06261482063614860636148A06361484D
:10345000E06361482065614860656148A065E06D92
:1034600008B96048E0650146204688472068016841
:1034700041F00101016000F0F3FF0546052604E07C
:1034800000F0EEFF401B0A2811D820684068C007F2
:10349000F6D02068016821F00201016000F0E0FF31
:1034A00005460BE000F0DCFF401B0A2806D9606AE5
:1034B00040F40030606284F82060B4E7206840681F
:1034C0008007EFD4207E0128206801683DD021F0DC
:1034D00080010160607E01282068016838D021F0F9
:1034E00040010160A07E01282068016833D021F0EE
:1034F00020010160E07E0128206801682ED041F0A3
:1035000010010160207F01282068016829D021F086
:1035100008010160607F01282068016824D021F043
:1035200004010160D4E902010843D4E90412114303
:1035300008436168491E08432168C8610020606231
:10354000012084F82000002070BD41F08001C0E718
:1035500041F04001C5E741F02001CAE721F0100128
:10356000CFE741F00801D4E741F00401D9E70000BA
:1035700000640040006800402E2E2F44726976657A
:1035800072732F53544D3332463478785F48414C30
:103590005F4472697665722F5372632F73746D3353
:1035A00032663478785F68616C5F63616E2E6300A9
:1035B000733700087137000877370008753700083F
:1035C000D7370008DB370008DF370008D537000899
:1035D000D9370008DD37000879370008E1370008DF
:1035E000652F0008E9350008F0B587B004461421BE
:1035F0006846FCF7E2FF364B3648DFF8D0E0196842
:10360000D4F800C0334A03250226092710300024CD
:10361000491CF44522D11960012907D1016841F004
:1036200000710160006800F000700590106840F0C3
:10363000080010601068CDE9005600F00800CDE9E0
:10364000047069462448CDE9024500F055FD00228A
:103650000521142001F02AFB142032E0DFF87CE081
:10366000F44530D1D0F800C04CF0806CC0F800C0F8
:10367000D0F800C001290CF0806CCDF814C019609E
:1036800007D1016841F000710160006800F000702E
:103690000590106840F002001060106802AB00F066
:1036A000020005906020CDE9000683E8B00069467D
:1036B0000B4800F021FD00220521402001F0F6FA20
:1036C000402001F0C1FA07B0F0BD000000640040E6
:1036D0000000002030380240000C0240006800402A
:1036E0000004024010B500233AB190F82040012CAC
:1036F00009D090F8204064B32FE0416A41F4800182
:103700004162012010BD0F2927D2DFE801F0080A2D
:103710000C0E10121416181A1C1E202D2F00826277
:1037200020E0C2621EE002631CE042631AE0826392
:1037300018E0C26316E0026414E0426412E082649E
:1037400010E0C2640EE002650CE042650AE08265AA
:1037500008E00D2908D00E2908D0416A41F4800103
:1037600041620123184610BDC265FBE70266F9E716
:1037700070477047704770477047000070B5044647
:1037800090F82000012804D0606A40F400206062B4
:1037900018E0022084F820002068016821F001016F
:1037A000016000F05DFE05460EE000BF00F058FE2F
:1037B000401B0A2808D9606A40F400306062052086
:1037C00084F82000012070BD20684068C007EDD15A
:1037D000606270BD704770477047704770477047B0
:1037E0007047000010B504000AD00B4920688842D9
:1037F00003D0682109A00BF04FFA607910B106E000
:10380000012010BD00202071204600F023F8012087
:103810006071002010BD0000003002402E2E2F44A9
:103820007269766572732F53544D3332463478780B
:103830005F48414C5F4472697665722F5372632F03
:1038400073746D3332663478785F68616C5F63726D
:10385000632E630008B500680649884208D106480F
:10386000016841F480510160006800F480500090CC
:1038700008BD0000003002403038024070470000B0
:103880002DE9F0410B6816460D460446A3B1242BE2
:1038900012D00C2B10D0142B0ED01C2B0CD0042BC0
:1038A0000AD02C2B08D0342B06D03C2B04D040F26D
:1038B000A6311BA00BF0F0F9686830B1022804D0E3
:1038C00040F2A73116A00BF0E7F936B1102E04D064
:1038D0004FF46A7112A00BF0DFF9607901281CD057
:1038E00001276771022020712368186806F0100212
:1038F00040F6FE7191408843D5E900152943914077
:103900000143196020680168C02393409943016016
:10391000277100206071BDE8F0810220FBE7000004
:103920002E2E2F447269766572732F53544D3332A5
:10393000463478785F48414C5F4472697665722FEF
:103940005372632F73746D3332663478785F6861B5
:103950006C5F6461632E6300704770B50446006855
:1039600001684FF00405890411D5416B89040ED517
:103970002571216941F001012161E902416320685B
:10398000016821F4805101602046FFF7E5FF2068BF
:103990000168890014D5416B890011D52571216911
:1039A00041F0020121614FF000514163206801683C
:1039B00021F0805101602046BDE87040FFF75EBFF6
:1039C00070BD000070B504000CD00D49206888421D
:1039D00004D040F217110BA00BF05EF920790025FE
:1039E00010B105E0012070BD6571204600F026F899
:1039F00002202071256101202071002070BD00008F
:103A0000007400402E2E2F447269766572732F5316
:103A1000544D3332463478785F48414C5F44726984
:103A20007665722F5372632F73746D3332663478F8
:103A3000785F68616C5F6461632E630010B586B067
:103A4000044614216846FCF7B8FD154920688842F1
:103A500024D114480021026842F00052026000683C
:103A600000F0005005900F481038026842F0010243
:103A70000260006800F00100059020200090032003
:103A8000CDE901016946084800F036FB0022062115
:103A9000362001F00BF9362001F0D6F806B010BD43
:103AA0000074004040380240000002402DE9F0411F
:103AB0000446876D00F0D4FC064694F835000025D6
:103AC000022806D08020606584F834500120BDE8CB
:103AD000F0812068016821F01601016020684169C9
:103AE00021F080014161206C08B9A06C20B12068F0
:103AF000016821F0080101602068016821F00101DE
:103B000001600CE000F0ACFC801B052807D92020E8
:103B10006065032084F8350084F83450D7E72068C6
:103B20000068C007EED194F85C103F208840B86070
:103B3000012084F8350084F834500020C7E790F85D
:103B40003510022903D080214165012070470521ED
:103B500080F835100068016821F001010160002043
:103B6000704790F8350070472DE9F84304464FF050
:103B70000009CDF8009063484FF41651A56D006818
:103B8000B0FBF1F72E6894F85C10082000FA01F100
:103B900031420FD021680A6852070BD50A6822F01B
:103BA00004020A6094F85C108840A860606D40F0E0
:103BB0000100606594F85C104FF0010808FA01F00C
:103BC000304208D021684969090604D5A860606DB3
:103BD00040F00200606594F85C1004208840304298
:103BE00008D021680968890704D5A860606D40F095
:103BF0000400606594F85C1010208840304218D0B2
:103C000021680968090714D5A8602068016849037C
:103C100004D50068000308D5A16C07E00168C90558
:103C200003D4016821F008010160216C09B120462C
:103C3000884794F85C1020208840304231D02168B9
:103C40000968C9062DD5A86094F8350005282068B4
:103C5000016806D0490347D5006800031DD4616C94
:103C60001CE021F0160101602068416921F080010B
:103C70004161206C08B9A06C20B12068016821F076
:103C80000801016094F85C103F208840A86084F827
:103C9000358084F83490216D1FE0E16B09B1204636
:103CA0008847606D00282BD0606DC00714D00520B8
:103CB00084F835002068016821F001010160009856
:103CC000401C0090B84203D820680068C007F6D1B5
:103CD00084F8358084F83490E16C002910D001B06C
:103CE0002046BDE8F04308470168C905D5D40168FE
:103CF00021F01001016084F8358084F83490CCE71D
:103D0000BDE8F8837C0000202DE9F041044600F076
:103D1000A7FB0546002C7CD0A249206888423ED0F3
:103D2000A049183188423AD09E493031884236D075
:103D30009C494831884232D09A49603188422ED01D
:103D40009849783188422AD096499031884226D0C5
:103D50009449A831884222D0934988421FD0924981
:103D6000183188421BD090493031884217D08E4993
:103D70004831884213D08C49603188420FD08A493B
:103D8000783188420BD088499031884207D08649E3
:103D9000A831884203D0B72184A00AF07DFF606873
:103DA000C0B1B0F1007F15D0B0F1806F12D0B0F18A
:103DB000C06F0FD0B0F1006F0CD0B0F1206F09D000
:103DC000B0F1406F06D0B0F1606F03D0B82177A09A
:103DD0000AF062FFA06838B1402805D0802803D0DF
:103DE000B92172A00AF058FFE068B0F5007F04D056
:103DF00018B1BA216DA00AF04FFF2069B0F5806FAD
:103E000004D018B1BB2169A00AF046FF606958B11F
:103E100000E071E0B0F5006F06D0B0F5805F03D030
:103E2000BC2162A00AF038FFA06948B1B0F5005F7C
:103E300006D0B0F5804F03D0BD215CA00AF02CFF66
:103E4000E06940B1B0F5807F05D0202803D0BE21C5
:103E500056A00AF021FF206A60B1B0F5803F09D07A
:103E6000B0F5003F06D0B0F5403F03D0BF214FA0D2
:103E70000AF012FF606A002832D0042806D0C02160
:103E80004AA00AF009FF606A002829D0A06A48B158
:103E9000012807D0022805D0032803D0C52143A05C
:103EA0000AF0FAFEE06A60B1B0F5000F09D0B0F197
:103EB000807F06D0B0F1C07F03D0C6213BA00AF0BE
:103EC000EBFE206B60B1B0F5001F09D0B0F5800F9C
:103ED00006D0B0F5C00F03D0C72134A00AF0DCFE35
:103EE000022084F83500002684F8346020680168D8
:103EF00021F0010101600EE00120BDE8F08100BF6A
:103F000000F0AEFA401B052805D92020606503208B
:103F100084F83500F1E720680068C007F0D1226816
:103F2000116830480140D4E901031843D4E903354E
:103F30002B43184363691843A3691843E369184383
:103F4000236A18430843616A042903D1D4E90B1397
:103F500019430843106020684069656A20F0070033
:103F600029460543012704290CD1A06A0543E06ACC
:103F700040B12046FDF7EEFE20B14020606584F898
:103F80003570B9E7206845612046FDF7CFFE94F80B
:103F90005C203F2191408160666584F83570002087
:103FA000ABE7000010600240106402402E2E2F4448
:103FB0007269766572732F53544D33324634787874
:103FC0005F48414C5F4472697665722F5372632F6C
:103FD00073746D3332663478785F68616C5F646DDA
:103FE000612E63003F8010F070B5044600F038FA8F
:103FF0000546601C02D004480078044400F030FA02
:10400000401BA042FAD370BD700000207047000032
:104010002DE9F0412F4F38682F4C10F0F20F4FF080
:10402000FF384FF000050DD0207801282DD02078E2
:1040300002282ED0D4F81460FEF7DAF9304600F0EA
:104040004DF825703868C0070BD001203860207803
:10405000012820D02078022837D06069FFF7D6FFEA
:104060002570207800280ED11A48001D016821F023
:10407000FF010160016821F080710160016821F099
:10408000007101602576BDE8F081E668C4F80C8017
:10409000D2E72669D0E76068401E6060606850B172
:1040A000E068FFF7B3FFE068401CE060E068217A59
:1040B000FEF704F9D5E74646C4F80C802570FEF7F4
:1040C0006BF93046FFF7A2FFCBE7FEF765F92069F1
:1040D000C4E700000C3C0240182D002070477047D8
:1040E000044910B50A68024202D00860FFF7F7FFE2
:1040F00010BD0000143C01402DE9F84FDFF888B2F4
:104100000D46044658451BD0A048844218D0A0480C
:10411000844215D09F48844212D09F4884420FD0D9
:104120009E4884420CD09E48844209D09D488442D7
:1041300006D09D48844203D0AC219CA00AF0ACFD7F
:1041400028680104090C01D0000C03D0AD2197A010
:104150000AF0A2FD6868F8B101281DD011281BD013
:10416000022819D0122817D0B0F5881F14D0B0F546
:10417000041F11D0B0F5441F0ED0B0F5901F0BD026
:10418000B0F5081F08D0B0F5481F05D0032803D0AC
:10419000AE2186A00AF080FD00264FF0010A4FF004
:1041A000030900BF0AFA06F02F688046074047451A
:1041B0007ED1287900F00300012801D002281DD10A
:1041C000E86848B1012807D0022805D0032803D0A9
:1041D000C02176A00AF060FDA168720009FA02F021
:1041E0008143E86890400843A0606068297920EA2C
:1041F0000800C1F30011B140014361602879C04358
:10420000800712D0A86838B1012805D0022803D051
:10421000D12166A00AF040FDE168720009FA02F0BF
:104220008143A86890400843E060287900F00300CB
:1042300002282ED12869F8B109281DD001281BD0E9
:10424000022819D0032817D0042815D0052813D028
:10425000062811D007280FD008280DD00A280BD027
:104260000B2809D00C2807D00D2805D00F2803D023
:10427000DE214EA00AF010FDF00804EB8002106A67
:104280007107CB0E0F21994088432969994001435A
:1042900011622068720009FA02F18843297901F05D
:1042A0000301914001432160686810F4403F00E041
:1042B00063E062D04C48016841F4804101600068CD
:1042C00026F0030100F48040009048480A18D2F814
:1042D0000808B1070B0F0F21994088435C4501D1B5
:1042E000002123E029498C4201D101211EE0284907
:1042F0008C4201D1022119E026498C4201D10321CF
:1043000014E025498C4201D104210FE023498C425D
:1043100001D105210AE022498C4201D1062105E0A4
:1043200020498C4201D1072100E008219940014336
:10433000C2F808182E4908686A68B843D20200D546
:10434000384308602A49091D08686A68B843920220
:1043500000D5384308602649091F08686A68B843D1
:10436000920300D5384308602149083908686A6813
:10437000B843D20300D538430860761C102EFFF4F2
:1043800011AFBDE8F88F00000000024000040240B9
:1043900000080240000C02400010024000140240DD
:1043A00000180240001C0240002002402E2E2F4424
:1043B0007269766572732F53544D33324634787870
:1043C0005F48414C5F4472697665722F5372632F68
:1043D00073746D3332663478785F68616C5F6770D0
:1043E000696F2E6300000000443802400030014035
:1043F000083C014070B515460C00064604D140F259
:104400009D1108A00AF048FC45B1012D04D04FF4DD
:10441000CF7104A00AF040FCB46170BD2004B0610B
:1044200070BD00002E2E2F447269766572732F5373
:10443000544D3332463478785F48414C5F4472695A
:104440007665722F5372632F73746D3332663478CE
:10445000785F68616C5F6770696F2E6300000000B1
:104460000148806870470000700000207047704766
:104470002DE9F041016804464A694E6890F83E0013
:104480000025D743FA0506D4F243D20503D46FF4CE
:10449000807201254A61B90508D4F143C90505D4E4
:1044A00022686FF4007145F002055161790525D449
:1044B000F143C90522D4638D94F83D10226B202866
:1044C00008D13BB9212910D029290ED0282901D1A2
:1044D000212A0AD022686FF48061516145F00405F9
:1044E000102806D0402804D008E0204605F09AF8AD
:1044F00004E02068016841F400710160380508D4C7
:10450000F043C00505D421686FF4006045F008054C
:104510004861002D07D0206C284320642046BDE868
:10452000F04104F011BDBDE8F0812DE9F0470268CB
:1045300000215368C66A90F83E4090F83D50102C18
:1045400012D0402C10D0046C002C7DD05469E44370
:10455000A6077AD4DE43B60577D4036C03B191691C
:10456000BDE8F04705F03AB8976951694FF42A0C55
:10457000C9435FEAC1784FF02A4904D066452AD082
:104580004E4528D010E0DE43B6050DD4C16A614522
:1045900001D1012103E0C16A494501D10821C1626D
:1045A000BDE8F04704F084BF0E0716D4DE43B6051D
:1045B00013D4416CC9B21161416B09B1C96B29B9FE
:1045C000816B002907D0C96B002904D000684168BD
:1045D00041F400614160BDE8F0878E0706D4DE43F8
:1045E000B60503D4BDE8F04704F0D6BEFE435268DA
:1045F00076074FEA02521DD4002AECDB0A0608D4E3
:10460000DA43520505D4490705D5BDE8F04704F063
:1046100067BE4907DFD4D9438905DCD4212D05D0F5
:10462000402CD8D1BDE8F04704F088BFBDE8F04782
:1046300004F014BE002ACEDB4A060BD4DA4352053E
:1046400008D4490708D501E00DE00EE0BDE8F047C9
:1046500004F090BD4907BED4D9438905BBD4BDE859
:10466000F04704F01DBD916970E7E10606D4D94317
:10467000890503D4BDE8F04705F016B82821212D9F
:1046800027D0292D25D0650655D4DD436D0552D49C
:10469000640752D590F83D30448D002C9BD01269B0
:1046A000446A2270426A521C4262428D521E428506
:1046B000428D002A8FD12A2B8DD10268536823F4B2
:1046C000806353602222026380F83D1000F058FAA4
:1046D00081E7250623D4DD436D0520D4640720D56A
:1046E00090F83D30448D002CF2D0446A2478146157
:1046F000426A521C4262428D521E4285428D002AFD
:10470000E6D1292BE4D10268536823F48063536017
:104710002122026380F83D1000F033FA5BE7610765
:10472000D6D4D9438905D3D4418D0029D0D0416A4C
:10473000097811610AE06107CAD4D9438905C7D451
:10474000418D0029C4D01169426A1170416A491C27
:104750004162418D491E41853DE7704770B50400B7
:104760007DD08A49206888420AD08949884207D08A
:104770008849884204D04FF4DF7187A00AF08CFA90
:1047800060689349401E884204D940F2BF1182A05C
:104790000AF082FAA0684FF4804530B1A84204D0F4
:1047A0004FF4E0717CA00AF077FAE068800A04D048
:1047B00040F2C11178A00AF06FFA2069A84207D030
:1047C000B0F5404F04D04FF4E17173A00AF064FAE1
:1047D000606930B1012804D040F2C3116EA00AF024
:1047E0005BFAA06930F0FE0004D04FF4E2716AA0D9
:1047F0000AF052FAE06930B1402804D040F2C51105
:1048000065A00AF049FA206A30B1802804D04FF43C
:10481000E37161A00AF040FA94F83D00002520B948
:1048200084F83C50204600F0E3F8242084F83D0052
:104830002068016821F0010101602068016841F4ED
:10484000004101602068016821F40041016001F02D
:10485000CBFA604A6168914202D85F4901E002E008
:104860005E49884201D2012070BD5D492368B0FBDA
:10487000F1F15E6826F03F060E435E606368934286
:1048800006D94FF4967359434FF47A73B1FBF3F1A1
:104890002368491C1E6A26F03F063143196261688D
:1048A000914210D84900401EB0FBF1F2521CC2F3F5
:1048B0000B02042A01D2042022E0B0FBF1F0401CDC
:1048C000C0F30B001CE0A368F3B301EBC10202EBE1
:1048D0000116421EB2FBF6F2521C42F4804212054F
:1048E00049D093B301EBC10202EB0111401EB0FBB2
:1048F000F1F0401CC0F30B0040F4804040F4004055
:104900002168CA694CF6FF739A431043C861D4E921
:10491000071001432068026822F0C00211430160C1
:10492000D4E9030101432068826848F2FF339A43C7
:1049300011438160D4E9050108432168CA6822F067
:10494000FF021043C86001E00EE016E02068016835
:1049500041F0010101602564202084F83D002563B9
:1049600084F83E50002070BD01EB4106421EB2FBB0
:10497000F6F2521CB3E70120C2E701EB4101401EF1
:10498000B0FBF1F0401CC0F30B00B7E7005400404F
:1049900000580040005C00402E2E2F44726976655E
:1049A00072732F53544D3332463478785F48414CFC
:1049B0005F4472697665722F5372632F73746D331F
:1049C00032663478785F68616C5F6932632E6300A9
:1049D0007F1A0600A086010080841E0000093D00A9
:1049E00040420F00704770477047704770470000A3
:1049F0002DE9F04387B0064614216846FBF7DDFD3C
:104A0000574ADFF860913168564803251227002481
:104A10004FF0040809F1100991425AD1016841F0A0
:104A2000200101600068CDE9005700F02000CDE9C9
:104A3000048069464C48CDE90245FFF75DFBD9F893
:104A4000001041F48001C9F80010D9F80000484D69
:104A500000F480000590454828604FF06067C5E984
:104A600001744FF48068C5E903486C61AC61EC6186
:104A70002C6228466C62FFF747F908B1FDF768FA27
:104A8000B563AE633A4D394860357830E5E80207E2
:104A90004020A5E81101364845F814496030AC6162
:104AA000EC612C626C62FFF72FF908B1FDF750FA48
:104AB0007563002211462120AE6300F0F7F8212033
:104AC00000F0C2F800221146222000F0EFF8222068
:104AD00040E0284A91423FD1016841F00401016061
:104AE000016801F004010591016841F001010160D4
:104AF0000068694600F0010005905015CDE90007F7
:104B000002AA1D4882E83001FFF7F6FA4FF48070E0
:104B1000CDE9000702AA694682E830011748FFF78D
:104B2000EBFAD9F8001041F40001C9F80010D9F8E7
:104B30000000002200F4000005901146482000F01B
:104B4000B5F8482000F080F800221146492000F016
:104B5000ADF8492000F078F807B0BDE8F083000018
:104B600000580040303802400014024040600240CB
:104B7000C8050020005C0040000802400000024020
:104B8000704770470248816802781144816070471D
:104B9000700000200B4810B5016841F400710160FD
:104BA000016841F480610160016841F48071016035
:104BB000032000F0CBF8022000F006F800F024F803
:104BC000002010BD003C024070B50D4D04464FF46E
:104BD0007A712878B1FBF0F00A490968B1FBF0F06E
:104BE00002F016FA48B9102C07D200222146501EB6
:104BF00000F05CF800206C6070BD012070BD00000A
:104C0000700000207C0000200E4808B5016841F4C7
:104C100080410160006800F4804000900948001F56
:104C2000016841F0805101600068002200F080506E
:104C300000900621042000F039F8BDE80840042067
:104C400000F002B84438024010B5040003D5BC217E
:104C500007A00AF021F8002C09DB04F01F01012055
:104C600088406109890001F1E021C1F8000110BD0F
:104C70002E2E2F447269766572732F53544D333242
:104C8000463478785F48414C5F4472697665722F8C
:104C90005372632F73746D3332663478785F686152
:104CA0006C5F636F727465782E63000070B5154693
:104CB0000C460646102A03D3A82114A009F0ECFFE5
:104CC000102C03D3A92111A009F0E6FF1E480068AB
:104CD000C0F30223C3F107022046042A00D90422AC
:104CE000191D072901D2002300E0DB1E012404FA6C
:104CF00002F1491E014099409C40641E2C40214312
:104D00003046BDE8704008F020BE00002E2E2F4433
:104D10007269766572732F53544D33324634787806
:104D20005F48414C5F4472697665722F5372632FFE
:104D300073746D3332663478785F68616C5F636F6B
:104D4000727465782E6300000CED00E010B5044627
:104D500007280BD0062C09D0052C07D0042C05D031
:104D6000032C03D0902108A009F096FF154904F008
:104D7000070208684FF6FF03184040EA0220124A73
:104D80001043086010BD00002E2E2F447269766516
:104D900072732F53544D3332463478785F48414C08
:104DA0005F4472697665722F5372632F73746D332B
:104DB00032663478785F68616C5F636F72746578AF
:104DC0002E6300000CED00E00000FA05704700685B
:104DD000416200207047F0B50368586A39B19C6A97
:104DE0004FF4827600EB144400204D1E0AE040EAA6
:104DF000024098620FE006EB8007DF59401C04EB8D
:104E00001744C0B2A842F6D344EA02404FF480727D
:104E100002EB810158500020F0BDD0F8080507F0E2
:104E200009BC01EBC10200EB8202D0F80805D26C8C
:104E300007F05EBB01EBC10200EB8202D0F808056F
:104E4000D2F88C2207F0AFBBD0F8080507F0F4BB0E
:104E50000A0601F00F0101EBC10100EB810101D550
:104E60003C3101E001F51F71006808F029BB70B505
:104E700004460B0601F00F0000EBC00104EB8101BA
:104E80004FF001024FF0000503D581F83D203C3181
:104E900003E081F87D5201F51F71087094F8BC049D
:104EA000012808D084F8BC24206807F0C3FF84F8E8
:104EB000BC54002070BD022070BD70B5044601F0E6
:104EC0000F006268904201D9012070BD0B0601F00D
:104ED0000F0101EBC10104EB81014FF001024FF022
:104EE000000503D581F83D203C3103E081F87D5277
:104EF00001F51F718D70087094F8BC04012808D06A
:104F000084F8BC24206808F091F984F8BC5400208F
:104F100070BD022070BD01F00F0101EBC10100EB7B
:104F20008100D0F89C0270472DE9F04104460F063D
:104F300001F00F0000EBC00104EB81014FF001060E
:104F40004FF0000503D581F83D603C3103E081F866
:104F50007D5201F51F710870CA600B714A7802B169
:104F60000881022B00D14D7194F8BC04012809D0AE
:104F700084F8BC64206807F0B5FE284684F8BC5469
:104F8000BDE8F0810220FBE770B50C4601F00F058B
:104F900005EBC50100EB8101C1F89432C1F88C2208
:104FA0000023C1F89C3281F87D3281F87C5203697C
:104FB00001F51F71012B00D14A612207027C0068B4
:104FC00003D008F08BF9002070BD08F075F8FAE7FF
:104FD00070B504460D4601F00F006168884201D9A2
:104FE000012070BD29064FF000064FF0010207D5E1
:104FF00000EBC00104EB810181F83D203C3107E06A
:1050000005EBC50104EB810181F87D6201F51F719B
:105010008A70087094F8BC04012807D084F8BC2476
:10502000206808F02FF9280702D007E0022070BDA1
:10503000217C04F2C442206808F0CCF884F8BC64F7
:10504000002070BD70B50C4601F00F0505EBC501E1
:1050500000EB81014B65CA640023CB65012381F815
:105060003D3001F83C5F0369012B00D14A61220702
:10507000027C006803D008F031F9002070BD08F010
:105080001BF8FAE72DE9FC5F05680446284608F09E
:10509000B8FA00287DD1206808F0E1FA002878D01D
:1050A000D5F80808C0F30D20C4F8FC04206808F007
:1050B000D6FA800704D52068416901F002014161F8
:1050C000206808F0CCFAC10604F2C440009034D540
:1050D0002068816921F0100181612F6A07F00F00BB
:1050E00000EBC00004EB8006C7F3434006F51F76D3
:1050F000022802D0062811D01AE047F6F0700742C5
:1051000016D0C7F30A1217462846316908F0ABFAE1
:10511000306938443061306A384408E00822284653
:10512000009908F0A0FA306AC7F30A110844306207
:105130002068816941F010018161206808F08FFAD0
:1051400000034FF0080B4FF0000A4FF001097CD527
:105150000026206808F062FA074674E0F80770D06D
:10516000F1B2206808F073FA8046C00707D005EB5B
:105170004611C1F8089B3146204605F05FFB5FEA07
:10518000087024D505EB4611C1F808BB2068016CF6
:1051900000E025E200EB46100191D0F8082BFC4B13
:1051A000994205D9110403D54FF40041C0F8081BFA
:1051B000204600F02FFBF6490198884207D9206964
:1051C000012804D120680121009A08F003F85FEA61
:1051D000C86004D505EB46111020C1F8080B5FEA42
:1051E00088701DD56869000605D5D5F8040840F417
:1051F0008061C5F8041806EBC60004EB800090F847
:105200007F1200F51F70012905D180F803A0F1B2CB
:10521000204600F0EBF905EB46110220C1F8080B1F
:105220005FEA886004D505EB46102021C0F8081B12
:105230005FEA884005D505EB46104FF40051C0F8F1
:10524000081B7F08761C002F88D1206808F007FA19
:1052500040036FD5206808F0DAF90746002667E0BA
:10526000F80763D0F1B2206808F0DFF98046C00784
:1052700023D006F00F0209FA02F0D5F83428824351
:10528000C5F8342805EB4610C0F8089920690128B4
:105290000FD106EBC60004EB8000D0E912211144C7
:1052A000C16436B9606D20B920680121009A07F009
:1052B00091FFF1B22046FFF7B4FD5FEA087003D515
:1052C00005EB4611C1F808B95FEAC86004D505EBE3
:1052D00046111020C1F808095FEA486004D505EBC3
:1052E00046104021C0F808195FEA887017D531468A
:1052F000284608F059F906EBC60004EB800090F848
:105300003F103C30012905D180F803A0F1B22046BE
:1053100000F068F905EB46110220C1F808095FEAC0
:10532000086003D53146204605F0EEFA7F08761C6A
:10533000002F95D1206808F092F9002811DAD5F8ED
:10534000040820F00101C5F8041894F8F4040128B9
:105350002BD0204600F042FA2068416901F000415C
:105360004161206808F07BF900050BD5D5F80808E5
:10537000C00702D0204600F075FA2068416901F4A8
:1053800000614161206808F06AF9C00466D5D5F86B
:10539000040820F00100C5F804081021206808F076
:1053A00003F900214FF67F321FE084F8F4A40021B6
:1053B0002046FFF70BFDCFE705EB4110C0F80829A9
:1053C000D0F8003923F40013C0F80039C0F8082BD6
:1053D000D0F8003B23F40013C0F8003BD0F8003BAA
:1053E00043F00063C0F8003B491C60688842E3D882
:1053F000D5F81C0840F00111C5F81C18206B0028D6
:1054000028460DD0D0F8840840F00B01C5F8841868
:10541000D5F8440840F00B012846C5F844180DE0C3
:10542000D0F8140842F22B010843C5F81408D5F847
:10543000100840F00B012846C5F81018D0F80008F5
:1054400020F4FE61C5F80018217C2068009A07F05E
:10545000C1FE2068416901F480514161206808F073
:10546000FEF8800415D5206807F07CFC206808F061
:10547000BBF8E06000F0B2FC0146227B206808F037
:1054800051F9204600F094F92068416901F4005177
:105490004161206808F0E3F8000707D5204600F0D6
:1054A000A1F92068416901F008014161206808F014
:1054B000D6F8000616D5A86920F08000A86101265C
:1054C0000DE000BF06EBC60004EB800090F87F0201
:1054D000012803D1F1B22046FFF7BAFC761C6068C0
:1054E000B042EFD8206808F0BAF8C00221D50126F2
:1054F0004F4616E005EB4610D0F8001906EBC60043
:1055000004EB800090F84020012A09D1002907DA35
:1055100080F83F70F0B240F080012046FFF798FC21
:10552000761C6068B042E5D82068416901F48011BA
:105530004161206808F093F8800234D501204B4681
:1055400029E000BF05EB4011D1F8001B00EBC002C1
:1055500004EB820696F88022012A1BD1002919DA71
:1055600094F8FC2401F4803102F00102914211D13F
:1055700086F87F32A96941F08002AA61696909064B
:1055800008D4D5F8040840F40070C5F8040805E014
:105590000A30544F401C61688142D3D82068416969
:1055A00001F400114161206808F059F8400007D566
:1055B0002046FFF732FC2068416901F080414161DB
:1055C000206808F04CF840070AD52068456868074D
:1055D00002D52046FFF738FC206841682943416026
:1055E000BDE8FC9FD0F8080507F07AB8D0F80805A8
:1055F00007F08AB82DE9F0418AB0040010D0206885
:10560000B0F1A04F06D03A49884203D0872139A093
:1056100009F042FB94F8BD042668002520B108E09B
:1056200001200AB0BDE8F08184F8BC54204600F0A7
:105630007DF8032084F8BD04F06BC00500D425611B
:10564000206807F033FD04F11001282288466846DF
:10565000FAF781FF94E80F0007F092FB0226D0BB17
:105660000021206808F01EF8002001270FE000BF8D
:1056700000EBC00104EB810181F83D7001F83C0FA3
:1056800008810D71CD600D61401CC0B28D616168F3
:105690008142EDD8002011E000EBC00104EB810154
:1056A00081F87D5281F87C0281F88052C1F88852DD
:1056B000C1F88C52401CC0B2C1F89452616881425A
:1056C000EAD8282241466846FAF745FF94E80F00D9
:1056D00007F032FC10B184F8BD64A1E784F83850BB
:1056E00084F8BD74206807F019FC002099E70000D9
:1056F000000004402E2E2F447269766572732F537A
:10570000544D3332463478785F48414C5F44726977
:105710007665722F5372632F73746D3332663478EB
:10572000785F68616C5F7063642E630010B586B04B
:10573000044614216846FAF740FF2068B0F1A04FF4
:105740002FD119480021026842F00102026000686E
:1057500000F0010005904FF4E05000900220CDE9E8
:105760000101032003900A20049069460F48FEF7C8
:10577000C3FC0D48001D016841F0800101600A482A
:105780001430016841F4804101600068002200F497
:105790008040059011464320FFF788FA4320FFF729
:1057A00053FA06B010BD000030380240000002403D
:1057B00070B50446C068012570B1022801D0FCF71D
:1057C000C7FB2946D4F8080507F00CF8D4F80805FB
:1057D000BDE8704006F0C1BF0025F2E7D0F808052B
:1057E00006F0E9BFD0F8080506F0EFBF10B5044693
:1057F00090F8BC0401280BD0012084F8BC0484F884
:105800003810206807F07CFF002084F8BC0410BD2D
:10581000022010BDD0F8082500F2C441104606F061
:10582000EDBF10B50446006894F8BC14012906D0F9
:10583000012184F8BC14A16A012902D008E00220E9
:1058400010BDA169012903D0816B41F480318163CE
:10585000206807F084FE206807F052FB002084F8DF
:10586000BC0410BD10B50446D0F8080507F008F8D0
:105870002068D0F8001E41F00101C0F8001E206A27
:10588000002804D00248016841F00601016010BD03
:1058900010ED00E02DE9F84304460068401E06289C
:1058A00004D940F6D71188A009F0F6F920684FF026
:1058B0000109C1074FF0000601D140073AD5A068A1
:1058C000801E052804D940F6DE117FA009F0E4F916
:1058D00060683238B0F5BF7F04D940F6DF117AA096
:1058E00009F0DAF9DFF81C82C8F86860FEF7B8FD45
:1058F0000746854D05E000BFFEF7B2FDC01B02283C
:105900007DD828680001F7D46068217A800140EAD8
:1059100001707D4984310860C8F86890FEF7A0FDE9
:10592000074604E0FEF79CFDC01B0228E8D8286863
:105930000001F7D5207880077AD5E068B0F5807F40
:1059400063D0B0F5007F60D0704988425DD0704967
:1059500088425AD06F49884257D06F49884254D004
:105960006E49884251D06E4988424ED06D49884276
:105970004BD06D49884248D06C49884245D06C492B
:10598000884242D06B4988423FD06B4988423CD024
:105990006A49884239D06A49884236D06949884282
:1059A00033D06949884230D0684988422DD068494F
:1059B00088422AD06749884227D06749884224D044
:1059C0006649884221D0664988421ED0654988428E
:1059D0001BD06549884218D06449884215D0644973
:1059E000884212D0634988420FD0634988420CD064
:1059F0006249884209D06249884206D000E042E00C
:105A00004FF4216130A009F047F93F484030016868
:105A100041F08051016000685A4D00F080500090C4
:105A2000286840F480702860FEF71AFD074606E0FB
:105A300040E000BFFEF714FDC01B022823D82868F1
:105A4000C005F7D5304D7035286810F4407020D06F
:105A5000A18901F4407181421BD028684A4920F491
:105A60004070C1F800900E6028602868C00710D010
:105A7000FEF7F6FC064641F2883707E0FEF7F0FC39
:105A8000801BB84202D90320BDE8F883286880074C
:105A9000F4D5E1681C48C1F301220830032A0BD079
:105AA000016821F4F81101602868A189C1F30B0194
:105AB000084328600020E7E70268344B22F4F8121C
:105AC00019400A430260EFE72E2E2F447269766573
:105AD00072732F53544D3332463478785F48414CBB
